{
  "contractName": "dummy",
  "abi": [
    {
      "anonymous": false,
      "inputs": [
        {
          "indexed": false,
          "internalType": "string",
          "name": "name",
          "type": "string"
        },
        {
          "indexed": false,
          "internalType": "string",
          "name": "email",
          "type": "string"
        },
        {
          "indexed": false,
          "internalType": "address",
          "name": "manufacturerid",
          "type": "address"
        }
      ],
      "name": "addManu",
      "type": "event"
    },
    {
      "anonymous": false,
      "inputs": [
        {
          "indexed": false,
          "internalType": "string",
          "name": "name",
          "type": "string"
        },
        {
          "indexed": false,
          "internalType": "string",
          "name": "manufacturing_date",
          "type": "string"
        },
        {
          "indexed": false,
          "internalType": "string",
          "name": "expiry_date",
          "type": "string"
        },
        {
          "indexed": false,
          "internalType": "uint32",
          "name": "quantity",
          "type": "uint32"
        },
        {
          "indexed": false,
          "internalType": "uint32",
          "name": "mrppt",
          "type": "uint32"
        },
        {
          "indexed": false,
          "internalType": "uint32",
          "name": "batch",
          "type": "uint32"
        }
      ],
      "name": "addPdt",
      "type": "event"
    },
    {
      "inputs": [
        {
          "internalType": "uint32",
          "name": "",
          "type": "uint32"
        }
      ],
      "name": "manufacturer",
      "outputs": [
        {
          "internalType": "string",
          "name": "name",
          "type": "string"
        },
        {
          "internalType": "string",
          "name": "manufacturing_date",
          "type": "string"
        },
        {
          "internalType": "string",
          "name": "expiry_date",
          "type": "string"
        },
        {
          "internalType": "uint32",
          "name": "quantity",
          "type": "uint32"
        },
        {
          "internalType": "uint32",
          "name": "mrppt",
          "type": "uint32"
        }
      ],
      "stateMutability": "view",
      "type": "function",
      "constant": true
    },
    {
      "inputs": [
        {
          "internalType": "uint32",
          "name": "",
          "type": "uint32"
        }
      ],
      "name": "manufacturer_details",
      "outputs": [
        {
          "internalType": "string",
          "name": "name",
          "type": "string"
        },
        {
          "internalType": "string",
          "name": "email",
          "type": "string"
        },
        {
          "internalType": "address",
          "name": "manufacturerid",
          "type": "address"
        }
      ],
      "stateMutability": "view",
      "type": "function",
      "constant": true
    },
    {
      "inputs": [
        {
          "internalType": "address",
          "name": "sender",
          "type": "address"
        }
      ],
      "name": "addManufacturer",
      "outputs": [],
      "stateMutability": "nonpayable",
      "type": "function"
    },
    {
      "inputs": [],
      "name": "totalManufacturers",
      "outputs": [
        {
          "internalType": "uint256",
          "name": "",
          "type": "uint256"
        }
      ],
      "stateMutability": "view",
      "type": "function",
      "constant": true
    },
    {
      "inputs": [
        {
          "internalType": "uint256",
          "name": "index",
          "type": "uint256"
        }
      ],
      "name": "removeManufacturer",
      "outputs": [],
      "stateMutability": "nonpayable",
      "type": "function"
    },
    {
      "inputs": [
        {
          "internalType": "string",
          "name": "name",
          "type": "string"
        },
        {
          "internalType": "string",
          "name": "manufacturing_date",
          "type": "string"
        },
        {
          "internalType": "string",
          "name": "expiry_date",
          "type": "string"
        },
        {
          "internalType": "uint32",
          "name": "quantity",
          "type": "uint32"
        },
        {
          "internalType": "uint32",
          "name": "mrppt",
          "type": "uint32"
        }
      ],
      "name": "addProduct",
      "outputs": [],
      "stateMutability": "nonpayable",
      "type": "function"
    },
    {
      "inputs": [
        {
          "internalType": "string",
          "name": "name",
          "type": "string"
        },
        {
          "internalType": "string",
          "name": "email",
          "type": "string"
        },
        {
          "internalType": "address",
          "name": "manufacturerid",
          "type": "address"
        }
      ],
      "name": "addManufacturerDetails",
      "outputs": [],
      "stateMutability": "nonpayable",
      "type": "function"
    }
  ],
  "bytecode": "0x608060405260016000806101000a81548163ffffffff021916908363ffffffff1602179055506001600060046101000a81548163ffffffff021916908363ffffffff16021790555034801561005357600080fd5b506114ef806100636000396000f3fe608060405234801561001057600080fd5b506004361061007d5760003560e01c806361aed8f01161005b57806361aed8f0146100ec578063640ed507146101085780636a4549d314610126578063b4e27cff146101425761007d565b80630764115d146100825780633e46f85a1461009e5780635f8a5afa146100d0575b600080fd5b61009c60048036038101906100979190610c0f565b610176565b005b6100b860048036038101906100b39190610cde565b61030f565b6040516100c793929190610dcb565b60405180910390f35b6100ea60048036038101906100e59190610e3c565b610469565b005b61010660048036038101906101019190610e69565b61057a565b005b6101106106d2565b60405161011d9190610f0d565b60405180910390f35b610140600480360381019061013b9190610f54565b6106df565b005b61015c60048036038101906101579190610cde565b61088b565b60405161016d959493929190610f90565b60405180910390f35b6040518060a001604052808681526020018581526020018481526020018363ffffffff1681526020018263ffffffff1681525060016000600160008054906101000a900463ffffffff166101ca9190611027565b63ffffffff1663ffffffff16815260200190815260200160002060008201518160000190816101f9919061126b565b50602082015181600101908161020f919061126b565b506040820151816002019081610225919061126b565b5060608201518160030160006101000a81548163ffffffff021916908363ffffffff16021790555060808201518160030160046101000a81548163ffffffff021916908363ffffffff16021790555090505060008081819054906101000a900463ffffffff16809291906102989061133d565b91906101000a81548163ffffffff021916908363ffffffff160217905550507fd72a760fc21ff4d6e8fd9c7066d2901abb1ee65c3f83fd9533325873ea3ce0c9858585858560008054906101000a900463ffffffff1660405161030096959493929190611369565b60405180910390a15050505050565b60026020528060005260406000206000915090508060000180546103329061108e565b80601f016020809104026020016040519081016040528092919081815260200182805461035e9061108e565b80156103ab5780601f10610380576101008083540402835291602001916103ab565b820191906000526020600020905b81548152906001019060200180831161038e57829003601f168201915b5050505050908060010180546103c09061108e565b80601f01602080910402602001604051908101604052809291908181526020018280546103ec9061108e565b80156104395780601f1061040e57610100808354040283529160200191610439565b820191906000526020600020905b81548152906001019060200180831161041c57829003601f168201915b5050505050908060020160009054906101000a900473ffffffffffffffffffffffffffffffffffffffff16905083565b6000805b6104756106d2565b81101561050957600381815481106104905761048f6113df565b5b9060005260206000200160009054906101000a900473ffffffffffffffffffffffffffffffffffffffff1673ffffffffffffffffffffffffffffffffffffffff168373ffffffffffffffffffffffffffffffffffffffff16036104f65760019150610509565b80806105019061140e565b91505061046d565b5060008103610576576003829080600181540180825580915050600190039060005260206000200160009091909190916101000a81548173ffffffffffffffffffffffffffffffffffffffff021916908373ffffffffffffffffffffffffffffffffffffffff1602179055505b5050565b60405180606001604052808481526020018381526020018273ffffffffffffffffffffffffffffffffffffffff16815250600260008060049054906101000a900463ffffffff1663ffffffff1663ffffffff16815260200190815260200160002060008201518160000190816105f0919061126b565b506020820151816001019081610606919061126b565b5060408201518160020160006101000a81548173ffffffffffffffffffffffffffffffffffffffff021916908373ffffffffffffffffffffffffffffffffffffffff1602179055509050506000600481819054906101000a900463ffffffff16809291906106739061133d565b91906101000a81548163ffffffff021916908363ffffffff160217905550507fb00a732bfea14931c31ec7366e6ab2595962cba0d859efefef91a06bbcbdbfa68383836040516106c593929190610dcb565b60405180910390a1505050565b6000600380549050905090565b6000600382815481106106f5576106f46113df565b5b9060005260206000200160009054906101000a900473ffffffffffffffffffffffffffffffffffffffff1690506003600161072e6106d2565b6107389190611456565b81548110610749576107486113df565b5b9060005260206000200160009054906101000a900473ffffffffffffffffffffffffffffffffffffffff1660038381548110610788576107876113df565b5b9060005260206000200160006101000a81548173ffffffffffffffffffffffffffffffffffffffff021916908373ffffffffffffffffffffffffffffffffffffffff16021790555080600360016107dd6106d2565b6107e79190611456565b815481106107f8576107f76113df565b5b9060005260206000200160006101000a81548173ffffffffffffffffffffffffffffffffffffffff021916908373ffffffffffffffffffffffffffffffffffffffff16021790555060038054806108525761085161148a565b5b6001900381819060005260206000200160006101000a81549073ffffffffffffffffffffffffffffffffffffffff021916905590555050565b60016020528060005260406000206000915090508060000180546108ae9061108e565b80601f01602080910402602001604051908101604052809291908181526020018280546108da9061108e565b80156109275780601f106108fc57610100808354040283529160200191610927565b820191906000526020600020905b81548152906001019060200180831161090a57829003601f168201915b50505050509080600101805461093c9061108e565b80601f01602080910402602001604051908101604052809291908181526020018280546109689061108e565b80156109b55780601f1061098a576101008083540402835291602001916109b5565b820191906000526020600020905b81548152906001019060200180831161099857829003601f168201915b5050505050908060020180546109ca9061108e565b80601f01602080910402602001604051908101604052809291908181526020018280546109f69061108e565b8015610a435780601f10610a1857610100808354040283529160200191610a43565b820191906000526020600020905b815481529060010190602001808311610a2657829003601f168201915b5050505050908060030160009054906101000a900463ffffffff16908060030160049054906101000a900463ffffffff16905085565b6000604051905090565b600080fd5b600080fd5b600080fd5b600080fd5b6000601f19601f8301169050919050565b7f4e487b7100000000000000000000000000000000000000000000000000000000600052604160045260246000fd5b610ae082610a97565b810181811067ffffffffffffffff82111715610aff57610afe610aa8565b5b80604052505050565b6000610b12610a79565b9050610b1e8282610ad7565b919050565b600067ffffffffffffffff821115610b3e57610b3d610aa8565b5b610b4782610a97565b9050602081019050919050565b82818337600083830152505050565b6000610b76610b7184610b23565b610b08565b905082815260208101848484011115610b9257610b91610a92565b5b610b9d848285610b54565b509392505050565b600082601f830112610bba57610bb9610a8d565b5b8135610bca848260208601610b63565b91505092915050565b600063ffffffff82169050919050565b610bec81610bd3565b8114610bf757600080fd5b50565b600081359050610c0981610be3565b92915050565b600080600080600060a08688031215610c2b57610c2a610a83565b5b600086013567ffffffffffffffff811115610c4957610c48610a88565b5b610c5588828901610ba5565b955050602086013567ffffffffffffffff811115610c7657610c75610a88565b5b610c8288828901610ba5565b945050604086013567ffffffffffffffff811115610ca357610ca2610a88565b5b610caf88828901610ba5565b9350506060610cc088828901610bfa565b9250506080610cd188828901610bfa565b9150509295509295909350565b600060208284031215610cf457610cf3610a83565b5b6000610d0284828501610bfa565b91505092915050565b600081519050919050565b600082825260208201905092915050565b60005b83811015610d45578082015181840152602081019050610d2a565b60008484015250505050565b6000610d5c82610d0b565b610d668185610d16565b9350610d76818560208601610d27565b610d7f81610a97565b840191505092915050565b600073ffffffffffffffffffffffffffffffffffffffff82169050919050565b6000610db582610d8a565b9050919050565b610dc581610daa565b82525050565b60006060820190508181036000830152610de58186610d51565b90508181036020830152610df98185610d51565b9050610e086040830184610dbc565b949350505050565b610e1981610daa565b8114610e2457600080fd5b50565b600081359050610e3681610e10565b92915050565b600060208284031215610e5257610e51610a83565b5b6000610e6084828501610e27565b91505092915050565b600080600060608486031215610e8257610e81610a83565b5b600084013567ffffffffffffffff811115610ea057610e9f610a88565b5b610eac86828701610ba5565b935050602084013567ffffffffffffffff811115610ecd57610ecc610a88565b5b610ed986828701610ba5565b9250506040610eea86828701610e27565b9150509250925092565b6000819050919050565b610f0781610ef4565b82525050565b6000602082019050610f226000830184610efe565b92915050565b610f3181610ef4565b8114610f3c57600080fd5b50565b600081359050610f4e81610f28565b92915050565b600060208284031215610f6a57610f69610a83565b5b6000610f7884828501610f3f565b91505092915050565b610f8a81610bd3565b82525050565b600060a0820190508181036000830152610faa8188610d51565b90508181036020830152610fbe8187610d51565b90508181036040830152610fd28186610d51565b9050610fe16060830185610f81565b610fee6080830184610f81565b9695505050505050565b7f4e487b7100000000000000000000000000000000000000000000000000000000600052601160045260246000fd5b600061103282610bd3565b915061103d83610bd3565b9250828203905063ffffffff81111561105957611058610ff8565b5b92915050565b7f4e487b7100000000000000000000000000000000000000000000000000000000600052602260045260246000fd5b600060028204905060018216806110a657607f821691505b6020821081036110b9576110b861105f565b5b50919050565b60008190508160005260206000209050919050565b60006020601f8301049050919050565b600082821b905092915050565b6000600883026111217fffffffffffffffffffffffffffffffffffffffffffffffffffffffffffffffff826110e4565b61112b86836110e4565b95508019841693508086168417925050509392505050565b6000819050919050565b600061116861116361115e84610ef4565b611143565b610ef4565b9050919050565b6000819050919050565b6111828361114d565b61119661118e8261116f565b8484546110f1565b825550505050565b600090565b6111ab61119e565b6111b6818484611179565b505050565b5b818110156111da576111cf6000826111a3565b6001810190506111bc565b5050565b601f82111561121f576111f0816110bf565b6111f9846110d4565b81016020851015611208578190505b61121c611214856110d4565b8301826111bb565b50505b505050565b600082821c905092915050565b600061124260001984600802611224565b1980831691505092915050565b600061125b8383611231565b9150826002028217905092915050565b61127482610d0b565b67ffffffffffffffff81111561128d5761128c610aa8565b5b611297825461108e565b6112a28282856111de565b600060209050601f8311600181146112d557600084156112c3578287015190505b6112cd858261124f565b865550611335565b601f1984166112e3866110bf565b60005b8281101561130b578489015182556001820191506020850194506020810190506112e6565b868310156113285784890151611324601f891682611231565b8355505b6001600288020188555050505b505050505050565b600061134882610bd3565b915063ffffffff820361135e5761135d610ff8565b5b600182019050919050565b600060c08201905081810360008301526113838189610d51565b905081810360208301526113978188610d51565b905081810360408301526113ab8187610d51565b90506113ba6060830186610f81565b6113c76080830185610f81565b6113d460a0830184610f81565b979650505050505050565b7f4e487b7100000000000000000000000000000000000000000000000000000000600052603260045260246000fd5b600061141982610ef4565b91507fffffffffffffffffffffffffffffffffffffffffffffffffffffffffffffffff820361144b5761144a610ff8565b5b600182019050919050565b600061146182610ef4565b915061146c83610ef4565b925082820390508181111561148457611483610ff8565b5b92915050565b7f4e487b7100000000000000000000000000000000000000000000000000000000600052603160045260246000fdfea2646970667358221220daf920f2babbf43eabea6738dc39d34c1395d4704b026be4514a3f53b367365164736f6c63430008130033",
  "immutableReferences": {},
  "source": "// SPDX-License-Identifier: GPL-3.0\r\n\r\npragma solidity >=0.7.0 <0.9.0;\r\n\r\ncontract dummy {\r\n    uint32 batch_no = 1;\r\n    uint32 mindex = 1;\r\n\r\n    struct product {\r\n        string name;\r\n        string manufacturing_date;\r\n        string expiry_date;\r\n        uint32 quantity;\r\n        uint32 mrppt;\r\n    }\r\n\r\n    struct details {\r\n        string name;\r\n        string email;\r\n        address manufacturerid;\r\n    }\r\n\r\n    mapping(uint32 => product) public manufacturer;\r\n    mapping(uint32 => details) public manufacturer_details;\r\n    address[] manufacturers;\r\n\r\n    function addManufacturer(address sender) public {\r\n        int chk = 0;\r\n        for (uint i = 0; i < totalManufacturers(); i++) {\r\n            if (sender == manufacturers[i]) {\r\n                chk = 1;\r\n                break;\r\n            }\r\n        }\r\n        if (chk == 0) manufacturers.push(sender);\r\n    }\r\n\r\n    function totalManufacturers() public view returns (uint) {\r\n        return manufacturers.length;\r\n    }\r\n\r\n    function removeManufacturer(uint256 index) public {\r\n        address temp = manufacturers[index];\r\n        manufacturers[index] = manufacturers[totalManufacturers() - 1];\r\n        manufacturers[totalManufacturers() - 1] = temp;\r\n\r\n        manufacturers.pop();\r\n    }\r\n\r\n    event addPdt(\r\n        string name,\r\n        string manufacturing_date,\r\n        string expiry_date,\r\n        uint32 quantity,\r\n        uint32 mrppt,\r\n        uint32 batch\r\n    );\r\n\r\n    event addManu(string name, string email, address manufacturerid);\r\n\r\n    function addProduct(\r\n        string memory name,\r\n        string memory manufacturing_date,\r\n        string memory expiry_date,\r\n        uint32 quantity,\r\n        uint32 mrppt\r\n    ) public {\r\n        manufacturer[batch_no - 1] = product(\r\n            name,\r\n            manufacturing_date,\r\n            expiry_date,\r\n            quantity,\r\n            mrppt\r\n        );\r\n        batch_no++;\r\n        emit addPdt(\r\n            name,\r\n            manufacturing_date,\r\n            expiry_date,\r\n            quantity,\r\n            mrppt,\r\n            batch_no\r\n        );\r\n    }\r\n\r\n    function addManufacturerDetails(\r\n        string memory name,\r\n        string memory email,\r\n        address manufacturerid\r\n    ) public {\r\n        manufacturer_details[mindex] = details(name, email, manufacturerid);\r\n        mindex++;\r\n        emit addManu(name, email, manufacturerid);\r\n    }\r\n}\r\n",
  "sourcePath": "R:\\GitHub_Local\\Udemy\\defi-staking-app-starter\\src\\contracts\\manufacturer.sol",
  "compiler": {
    "name": "solc",
    "version": "0.8.19+commit.7dd6d404.Emscripten.clang"
  },
  "schemaVersion": "3.4.13",
  "updatedAt": "2023-04-29T06:27:59.325Z",
  "networkType": "ethereum",
  "devdoc": {
    "kind": "dev",
    "methods": {},
    "version": 1
  },
  "userdoc": {
    "kind": "user",
    "methods": {},
    "version": 1
  }
}